:100000000C942A000C94D4000C94DE000C9447004D
:100010000C9447000C9447000C9447000C94470044
:100020000C9447000C9447000C9447000C94470034
:100030000C9447000C9447000C9447000C94470024
:100040000C9447000C9447000C9447000C94470014
:100050000C94470011241FBECFE5D8E0DEBFCDBF12
:1000600010E0A0E6B0E0ECE4FBE002C005900D92E9
:10007000A23AB107D9F710E0A2EAB0E001C01D92A0
:10008000AC3AB107E1F70E942A020C94A4050C9443
:1000900000009BB3282F207F9F70292B2BBBD89863
:1000A000D99A22E0922F9A95F1F7D998E0E9F1E0F8
:1000B0003197F1F79BB38295807F9F70982B9BBB04
:1000C000D99A2A95F1F7D99880EA9FE00197F1F73C
:1000D00008959BB3282F207F9F70292B2BBBD89A84
:1000E000D99A22E0922F9A95F1F7D998E0E9F1E0B8
:1000F0003197F1F79BB38295807F9F70982B9BBBC4
:10010000D99A2A95F1F7D99880EA9FE00197F1F7FB
:1001100008958FEF8ABB80E49CE90197F1F782E0B4
:100120000E94490088E20E9449008CE00E94490038
:1001300086E00E94490081E00E94490080EA9FE039
:100140000197F1F70895CF93DF93EC0102C00E946D
:10015000690089918823D9F7DF91CF910895CF93D2
:10016000DF93EA01882331F4603168F46F70862FE1
:10017000806807C0813039F4603128F46F70862FB1
:10018000806C0E944900CE010E94A300DF91CF91B4
:10019000089581E00E94490080EA9FE00197F1F70D
:1001A00080E80E94490008951F920F920FB60F92A7
:1001B00011240F900FBE0F901F9018951F920F9251
:1001C0000FB60F9211240F900FBE0F901F9018952D
:1001D0008AB188618AB980B5866880BD83E389B9B0
:1001E00010BC089587B3806B87BBBE98C49A8DB14D
:1001F00081658DB908958FB9779BFECF8FB1089532
:100200008FEF8FB9779BFECF8FB108955D9BFECFA7
:100210008CB908955F9BFECF8CB108958330B1F007
:10022000843028F4813071F0823070F409C0853058
:10023000C1F0853080F08630C9F0873039F51FC0B5
:1002400086E00AC086E00EC086E011C086E080939A
:10025000AB0080EC0FC087E08093AB001092A6004B
:100260000BC087E08093AB0080E404C087E08093FC
:10027000AB0080E88093A6001092AA0008958093B6
:10028000AB0080EC8093A6001092AA0008958F70B6
:1002900008955D9BFECF9CB95D9BFECF8CB95D9BA5
:1002A000FECF8AE08CB90895A8980895AF98089574
:1002B000A89A0895AF9A0895EF92FF920F931F9313
:1002C000CF93DF9300E010E0C0E0D0E0FF249AE09D
:1002D000E92E8F2D0E940E01A8988091AB008FB956
:1002E000779BFECF8FB18091A6008FB9779BFECF11
:1002F0009FB19093A9008091AA008FB9779BFECF00
:100300008FB18093A700A89A9F705D9BFECF9CB988
:100310005D9BFECF8CB95D9BFECFECB8090F111D24
:10032000C80FD11DF39488E0F81699F6902F88270E
:100330008C0F9D1F9093A3008093A200DF91CF911B
:100340001F910F91FF90EF900895EF92FF920F93FE
:100350001F93CF93DF9300E010E0C0E0D0E0FF24D4
:100360003AE0E32E8F2D0E940E01AF988091AB00F2
:100370008FB9779BFECF8FB18091A6008FB9779B05
:10038000FECF9FB19093A9008091AA008FB9779B6F
:10039000FECF8FB18093A700AF9A9F705D9BFECF79
:1003A0009CB95D9BFECF8CB95D9BFECFECB8090F6D
:1003B000111DC80FD11DF39488E0F81699F6902FFF
:1003C00088278C0F9D1F9093A5008093A400DF9138
:1003D000CF911F910F91FF90EF9008958530910577
:1003E00051F1863091057CF482309105F1F0833033
:1003F00091051CF4019759F52BC083309105B9F094
:10040000049729F516C088309105D9F089309105F7
:1004100034F48630910589F00797C9F410C089300B
:10042000910589F00A9799F410C082E3089583E357
:10043000089584E3089585E3089586E3089587E3A6
:10044000089588E3089589E3089580E30895089561
:1004500081E30895EF92FF920F931F93DF93CF9361
:10046000CDB7DEB728970FB6F894DEBF0FBECDBF6D
:10047000A09AA79A0E948900A89AAF9A85B78A6025
:1004800085BF84B7806484BF8BB7806E8BBF0E94AA
:10049000E8000E94F2005D9BFECF8FEF8CB95D9B60
:1004A000FECF8AE08CB95D9BFECF80E18CB95D9B6D
:1004B000FECF8AE08CB90E945C01A89AAF9A0E9494
:1004C000A5018091A2009091A3000E944901809112
:1004D000A4009091A5000E9449015D9BFECF8FEF83
:1004E0008CB95D9BFECF8AE08CB95F9BFECF8CB14F
:1004F000E82EFF2400D000D000D0EDB7FEB7319633
:100500008E010F5F1F4FADB7BEB712961C930E93AF
:10051000119780E690E093838283F582E4820E94C3
:10052000CC028DB79EB706960FB6F8949EBF0FBE4D
:100530008DBFC8010E94A30090E3E916F10461F4A5
:1005400083E690E00E94A30080EC0E94490083E7CC
:1005500090E00E94A3001FC0A1E3EA16F10461F439
:100560008FE790E00E94A30080EC0E94490083E79F
:1005700090E00E94A3000FC0B2E3EB16F10459F41F
:100580008CE890E00E94A30080EC0E94490086E97C
:1005900090E00E94A300FFCFAEE0B0E0E2EDF2E019
:1005A0000C947B050D891E8986E08C831A83098350
:1005B0008FEF9FE79E838D839E01275E3F4FCE0185
:1005C00001966F89788DA9010E94F0022F813885EC
:1005D000020F131FF80110822E96E4E00C94970589
:1005E000ABE0B0E0E6EFF2E00C946D053C012B01CE
:1005F0005A01FC0117821682838181FD03C06FEFCF
:100600007FEFC6C19AE0892E1E010894211C311C7F
:10061000F3012381F20123FD859123FF81912F01B5
:10062000882309F4B2C1853239F423FD859123FF73
:1006300081912F01853229F490E0B3010E94E304F7
:10064000E7CF982FFF24EE249924FFE1FF15D0F087
:100650009B3269F09C3228F4903259F0933291F435
:100660000EC09D3249F0903369F441E024C052E05D
:10067000F52A84E0F82A28C098E0F92A25C0E0E1AC
:10068000FE2A22C0F7FC29C0892F80538A3070F4DB
:10069000F6FE05C0989C902C1124980E15C0E89C7D
:1006A000E02C1124E80EF0E2FF2A0EC09E3229F45D
:1006B000F6FC6BC140E4F42A07C09C3619F450E8FC
:1006C000F52A02C0983649F4F20123FD959123FFE3
:1006D00091912F01992309F0B8CF892F8554833048
:1006E00018F08052833038F444E050E0A40EB51E78
:1006F0005FE359830FC0933631F0933779F0933528
:1007000009F056C020C0F5018081898342E050E0A5
:10071000A40EB51E610101E010E012C0F501C08019
:10072000D180F6FC03C06FEF7FEF02C0692D70E04F
:1007300042E050E0A40EB51EC6010E94D8048C0110
:100740005FE7F52214C0F501C080D180F6FC03C03C
:100750006FEF7FEF02C0692D70E042E050E0A40E21
:10076000B51EC6010E94CD048C0150E8F52AF3FEA7
:1007700007C01AC080E290E0B3010E94E304EA944B
:100780008E2D90E008171907A8F30EC0F601F7FCAC
:100790008591F7FE81916F0190E0B3010E94E3041F
:1007A000E110EA94015010400115110579F7EAC0F3
:1007B000943611F0993669F5F7FE08C0F5012081ED
:1007C00031814281538184E090E00AC0F50180814B
:1007D00091819C01442737FD4095542F82E090E0A1
:1007E000A80EB91E9FE6F92257FF09C05095409503
:1007F000309521953F4F4F4F5F4FE0E8FE2ACA01E9
:10080000B901A1012AE030E00E940F05D82ED218CC
:1008100040C0953729F41F2D1F7E2AE030E01DC00F
:100820001F2D197F9F3661F0903720F4983509F01D
:10083000ACC00FC0903739F0983709F0A6C004C09B
:1008400028E030E00AC0106114FD146020E130E0BF
:1008500004C014FD166020E132E017FF08C0F50166
:10086000608171818281938144E050E008C0F5018C
:1008700080819181BC0180E090E042E050E0A40ED4
:10088000B51EA1010E940F05D82ED2188FE7F82EB1
:10089000F122F6FE0BC05EEFF522D91438F4F4FE17
:1008A00007C0F2FC05C08FEEF82202C01D2D01C06A
:1008B000192DF4FE0DC0FE01ED0DF11D8081803378
:1008C00019F499EEF92208C01F5FF2FE05C003C0BB
:1008D0008F2D867809F01F5F0F2DF3FC14C0F0FEFA
:1008E0000FC01E1510F09D2C0BC09D2C9E0C911A54
:1008F0001E2D06C080E290E0B3010E94E3041F5F5A
:100900001E15C0F304C01E1510F4E11A01C0EE2438
:1009100004FF0FC080E390E0B3010E94E30402FFF4
:100920001DC001FD03C088E790E00EC088E590E09F
:100930000BC0802F867891F001FF02C08BE201C0CE
:1009400080E2F7FC8DE290E0B3010E94E30406C070
:1009500080E390E0B3010E94E3049A94D914C0F3B9
:10096000DA94F101ED0DF11D808190E0B3010E9458
:10097000E304DD20A9F706C080E290E0B3010E9405
:10098000E304EA94EE20C1F743CEF3016681778158
:10099000CB012B96E2E10C948905FC010590615096
:1009A00070400110D8F7809590958E0F9F1F089585
:1009B000FC016150704001900110D8F7809590952E
:1009C0008E0F9F1F08950F931F93CF93DF938C017A
:1009D000EB018B8181FF1BC082FF0DC02E813F8107
:1009E0008C819D812817390764F4E881F98101938E
:1009F000F983E88306C0E885F985802F0995892B5E
:100A000031F48E819F8101969F838E8302C00FEF08
:100A10001FEFC801DF91CF911F910F910895FA0147
:100A2000AA27283051F1203181F1E8946F936E7F2D
:100A30006E5F7F4F8F4F9F4FAF4FB1E03ED0B4E01E
:100A40003CD0670F781F891F9A1FA11D680F791F5F
:100A50008A1F911DA11D6A0F711D811D911DA11D70
:100A600020D009F468943F912AE0269F1124301980
:100A7000305D3193DEF6CF010895462F4770405D1B
:100A80004193B3E00FD0C9F7F6CF462F4F70405DCA
:100A90004A3318F0495D31FD4052419302D0A9F725
:100AA000EACFB4E0A6959795879577956795BA951F
:100AB000C9F700976105710508959B01AC010A2EE5
:100AC00006945795479537952795BA95C9F7620FBC
:100AD000731F841F951FA01D08952F923F924F9260
:100AE0005F926F927F928F929F92AF92BF92CF92BE
:100AF000DF92EF92FF920F931F93CF93DF93CDB7C7
:100B0000DEB7CA1BDB0B0FB6F894DEBF0FBECDBF3E
:100B100009942A88398848885F846E847D848C840F
:100B20009B84AA84B984C884DF80EE80FD800C8118
:100B30001B81AA81B981CE0FD11D0FB6F894DEBFFB
:0C0B40000FBECDBFED010895F894FFCF6B
:100B4C002564002020436F6E6E65637465642074A9
:100B5C006F200020202020206465766963650020CA
:100B6C002055706C6F616420746F20002057616990
:100B7C0074696E67200020666F7220646576696305
:020B8C00650002
:00000001FF
