:100000000C942A000C943C000C943C000C943C0092
:100010000C943C000C943C000C943C000C943C0070
:100020000C943C000C943C000C943C000C943C0060
:100030000C943C000C943C000C943C000C943C0050
:100040000C943C000C943C000C943C000C943C0040
:100050000C943C0011241FBECFE5D8E0DEBFCDBF1D
:1000600010E0A0E6B0E001C01D92AA36B107E1F7AA
:100070000E9440010C9473010C9400008AB18861C5
:100080008AB980B5866880BD83E389B910BC0895BC
:1000900087B3806B87BBBE98C49A8DB181658DB9DB
:1000A00008958FB9779BFECF8FB108958FEF8FB9E9
:1000B000779BFECF8FB108955D9BFECF8CB90895DD
:1000C0008330B1F0843028F4813071F0823070F4E4
:1000D00009C08530C1F0853080F08630C9F08730A6
:1000E00039F51FC086E00AC086E00EC086E011C068
:1000F00086E08093690080EC0FC087E08093690000
:10010000109264000BC087E08093690080E404C013
:1001100087E08093690080E8809364001092680013
:1001200008958093690080EC8093640010926800C9
:1001300008958F7008955D9BFECF9CB95D9BFECFA7
:100140008CB95D9BFECF8AE08CB90895A89808957C
:10015000AF980895A89A0895AF9A0895EF92FF92E4
:100160000F931F93CF93DF9300E010E0C0E0D0E047
:10017000FF249AE0E92E8F2D0E946000A8988091BC
:1001800069008FB9779BFECF8FB1809164008FB9E2
:10019000779BFECF9FB190936700809168008FB9E5
:1001A000779BFECF8FB180936500A89A9F705D9B6F
:1001B000FECF9CB95D9BFECF8CB95D9BFECFECB8AA
:1001C000090F111DC80FD11DF39488E0F81699F698
:1001D000902F88278C0F9D1F909361008093600063
:1001E000DF91CF911F910F91FF90EF900895EF92C3
:1001F000FF920F931F93CF93DF9300E010E0C0E0D6
:10020000D0E0FF243AE0E32E8F2D0E946000AF98EB
:10021000809169008FB9779BFECF8FB18091640088
:100220008FB9779BFECF9FB1909367008091680054
:100230008FB9779BFECF8FB180936500AF9A9F7087
:100240005D9BFECF9CB95D9BFECF8CB95D9BFECFC5
:10025000ECB8090F111DC80FD11DF39488E0F816F2
:1002600099F6902F88278C0F9D1F909363008093A1
:100270006200DF91CF911F910F91FF90EF90089551
:10028000A09AA79AA89AAF9A0E943E000E9448009E
:100290005D9BFECF8FEF8CB95D9BFECF8AE08CB962
:1002A0005D9BFECF80E18CB95D9BFECF8AE08CB96F
:1002B0000E94AE00A89AAF9A0E94F7008091600059
:1002C000909161000E949B00809162009091630078
:1002D0000E949B005D9BFECF8FEF8CB95D9BFECF94
:0A02E0008AE08CB9FFCFF894FFCF3D
:00000001FF
