:100000000C942A000C94D4000C94EC000C94FD0089
:100010000C9447000C9447000C9447000C94470044
:100020000C9447000C9447000C9447000C94470034
:100030000C9447000C9447000C9447000C94470024
:100040000C9447000C9447000C9447000C94470014
:100050000C94470011241FBECFE5D8E0DEBFCDBF12
:1000600010E0A0E6B0E0ECEFFBE002C005900D92DE
:10007000AC3CB107D9F710E0ACECB0E001C01D9288
:10008000AD3DB107E1F70E947B020C94FC050C9496
:1000900000009BB3282F207F9F70292B2BBBD89863
:1000A000D99A22E0922F9A95F1F7D998E0E9F1E0F8
:1000B0003197F1F79BB38295807F9F70982B9BBB04
:1000C000D99A2A95F1F7D99880EA9FE00197F1F73C
:1000D00008959BB3282F207F9F70292B2BBBD89A84
:1000E000D99A22E0922F9A95F1F7D998E0E9F1E0B8
:1000F0003197F1F79BB38295807F9F70982B9BBBC4
:10010000D99A2A95F1F7D99880EA9FE00197F1F7FB
:1001100008958FEF8ABB80E49CE90197F1F782E0B4
:100120000E94490088E20E9449008CE00E94490038
:1001300086E00E94490081E00E94490080EA9FE039
:100140000197F1F70895CF93DF93EC0102C00E946D
:10015000690089918823D9F7DF91CF910895CF93D2
:10016000DF93EA01882331F4603168F46F70862FE1
:10017000806807C0813039F4603128F46F70862FB1
:10018000806C0E944900CE010E94A300DF91CF91B4
:10019000089581E00E94490080EA9FE00197F1F70D
:1001A00080E80E94490008951F920F920FB60F92A7
:1001B00011248F938091CB008F5F8093CB0080912F
:1001C000CB008A3019F481E08093CB008F910F909F
:1001D0000FBE0F901F9018951F920F920FB60F929F
:1001E00011248F938091D0008F5F8093D0008F91E6
:1001F0000F900FBE0F901F9018951F920F920FB681
:100200000F9211248F938091D1008F5F8093D10042
:100210008F910F900FBE0F901F9018958AB1886133
:100220008AB980B5866880BD83E389B910BC08951A
:1002300087B3806B87BBBE98C49A8DB181658DB939
:1002400008958FB9779BFECF8FB108958FEF8FB947
:10025000779BFECF8FB108955D9BFECF8CB908953B
:100260005F9BFECF8CB108958330B1F0843028F4C9
:10027000813071F0823070F409C08530C1F0853072
:1002800080F08630C9F0873039F51FC086E00AC09B
:1002900086E00EC086E011C086E08093DA0080EC34
:1002A0000FC087E08093DA001092D5000BC087E082
:1002B0008093DA0080E404C087E08093DA0080E86D
:1002C0008093D5001092D90008958093DA0080ECD5
:1002D0008093D5001092D90008958F7008955D9B8A
:1002E000FECF9CB95D9BFECF8CB95D9BFECF8AE0B3
:1002F0008CB90895A8980895AF980895A89A08957C
:10030000AF9A0895EF92FF920F931F93CF93DF93CD
:1003100000E010E0C0E0D0E0FF249AE0E92E8F2D4D
:100320000E943401A8988091DA008FB9779BFECFA4
:100330008FB18091D5008FB9779BFECF9FB19093FD
:10034000D8008091D9008FB9779BFECF8FB1809371
:10035000D600A89A9F705D9BFECF9CB95D9BFECF97
:100360008CB95D9BFECFECB8090F111DC80FD11DD4
:10037000F39488E0F81699F6902F88278C0F9D1F2C
:100380009093CD008093CC00DF91CF911F910F917E
:10039000FF90EF900895EF92FF920F931F93CF93EA
:1003A000DF9300E010E0C0E0D0E0FF243AE0E32E6D
:1003B0008F2D0E943401AF988091DA008FB9779B1E
:1003C000FECF8FB18091D5008FB9779BFECF9FB1C3
:1003D0009093D8008091D9008FB9779BFECF8FB1D1
:1003E0008093D600AF9A9F705D9BFECF9CB95D9BBA
:1003F000FECF8CB95D9BFECFECB8090F111DC80F65
:10040000D11DF39488E0F81699F6902F88278C0F69
:100410009D1F9093CF008093CE00DF91CF911F91CD
:100420000F91FF90EF9008950F931F93CF93DF9359
:10043000EC012091CB0000D000D000D0EDB7FEB78A
:1004400031960BED10E0ADB7BEB712961C930E932C
:10045000119780E690E093838283248315820E9423
:1004600024038DB79EB706960FB6F8949EBF0FBEB5
:100470008DBFC233D10519F1C333D10534F4C03374
:10048000D10549F0E19791F510C0C333D10509F1C9
:10049000E49761F521C083E690E00E94A30080EC20
:1004A0000E9449008EE690E01FC08AE790E00E941B
:1004B000A30080EC0E94490089E890E015C087E91C
:1004C00090E00E94A30080EC0E94490082EA90E044
:1004D0000BC08FEA90E002C08CEB90E00E94A3007A
:1004E00080EC0E944900C8010E94A300DF91CF91D7
:1004F0001F910F910895CF93DF93A09AA79A8A989E
:100500008B98BA980E948900A89AAF9A929A939A67
:10051000C29A85B78A6085BF84B7806484BF8BB771
:10052000806E8BBF78940E940E010E9418015D9B23
:10053000FECF8FEF8CB95D9BFECF8AE08CB95D9BBF
:10054000FECF80E18CB95D9BFECF8AE08CB90E9422
:100550008201A89AAF9A0E94CB018091CC00909121
:10056000CD000E946F018091CE009091CF000E943B
:100570006F015D9BFECF8FEF8CB95D9BFECF8AE054
:100580008CB980E390E00E94140280E593EC28ECA3
:1005900030E0F9013197F1F70197D9F70E94C900CE
:1005A00081E390E00E94140280E593EC28EC30E0B7
:1005B000F9013197F1F70197D9F75F9BFECF8CB125
:1005C00090E09093D3008093D2000E94C90082E310
:1005D00090E00E94140280E593EC28EC30E0F901F1
:1005E0003197F1F70197D9F70E94C9001092D10015
:1005F000C8ECD0E00DC083E390E00E94140288EEC6
:1006000093E0FE013197F1F70197D9F70E94C900F5
:100610008091D100882379F30E94C90084E390E09F
:100620000E94140280E395E728EC30E0F90131974D
:10063000F1F70197D9F75F9BFECF8CB190E09093D3
:10064000D3008093D200FFCFAEE0B0E0EAE2F3E067
:100650000C94D3050D891E8986E08C831A83098347
:100660008FEF9FE79E838D839E01275E3F4FCE01D4
:1006700001966F89788DA9010E9448032F813885E2
:10068000020F131FF80110822E96E4E00C94EF0580
:10069000ABE0B0E0EEE4F3E00C94C5053C012B01C7
:1006A0005A01FC0117821682838181FD03C06FEF1E
:1006B0007FEFC6C19AE0892E1E010894211C311CCF
:1006C000F3012381F20123FD859123FF81912F0105
:1006D000882309F4B2C1853239F423FD859123FFC3
:1006E00081912F01853229F490E0B3010E943B05EE
:1006F000E7CF982FFF24EE249924FFE1FF15D0F0D7
:100700009B3269F09C3228F4903259F0933291F484
:100710000EC09D3249F0903369F441E024C052E0AC
:10072000F52A84E0F82A28C098E0F92A25C0E0E1FB
:10073000FE2A22C0F7FC29C0892F80538A3070F42A
:10074000F6FE05C0989C902C1124980E15C0E89CCC
:10075000E02C1124E80EF0E2FF2A0EC09E3229F4AC
:10076000F6FC6BC140E4F42A07C09C3619F450E84B
:10077000F52A02C0983649F4F20123FD959123FF32
:1007800091912F01992309F0B8CF892F8554833097
:1007900018F08052833038F444E050E0A40EB51EC7
:1007A0005FE359830FC0933631F0933779F0933577
:1007B00009F056C020C0F5018081898342E050E0F5
:1007C000A40EB51E610101E010E012C0F501C08069
:1007D000D180F6FC03C06FEF7FEF02C0692D70E09F
:1007E00042E050E0A40EB51EC6010E9430058C0107
:1007F0005FE7F52214C0F501C080D180F6FC03C08C
:100800006FEF7FEF02C0692D70E042E050E0A40E70
:10081000B51EC6010E9425058C0150E8F52AF3FE9D
:1008200007C01AC080E290E0B3010E943B05EA9441
:100830008E2D90E008171907A8F30EC0F601F7FCFB
:100840008591F7FE81916F0190E0B3010E943B0515
:10085000E110EA94015010400115110579F7EAC042
:10086000943611F0993669F5F7FE08C0F50120813C
:1008700031814281538184E090E00AC0F50180819A
:1008800091819C01442737FD4095542F82E090E0F0
:10089000A80EB91E9FE6F92257FF09C05095409552
:1008A000309521953F4F4F4F5F4FE0E8FE2ACA0138
:1008B000B901A1012AE030E00E946705D82ED218C4
:1008C00040C0953729F41F2D1F7E2AE030E01DC05F
:1008D0001F2D197F9F3661F0903720F4983509F06D
:1008E000ACC00FC0903739F0983709F0A6C004C0EB
:1008F00028E030E00AC0106114FD146020E130E00F
:1009000004C014FD166020E132E017FF08C0F501B5
:10091000608171818281938144E050E008C0F501DB
:1009200080819181BC0180E090E042E050E0A40E23
:10093000B51EA1010E946705D82ED2188FE7F82EA8
:10094000F122F6FE0BC05EEFF522D91438F4F4FE66
:1009500007C0F2FC05C08FEEF82202C01D2D01C0B9
:10096000192DF4FE0DC0FE01ED0DF11D80818033C7
:1009700019F499EEF92208C01F5FF2FE05C003C00A
:100980008F2D867809F01F5F0F2DF3FC14C0F0FE49
:100990000FC01E1510F09D2C0BC09D2C9E0C911AA3
:1009A0001E2D06C080E290E0B3010E943B051F5F50
:1009B0001E15C0F304C01E1510F4E11A01C0EE2488
:1009C00004FF0FC080E390E0B3010E943B0502FFEB
:1009D0001DC001FD03C088E790E00EC088E590E0EF
:1009E0000BC0802F867891F001FF02C08BE201C01E
:1009F00080E2F7FC8DE290E0B3010E943B0506C067
:100A000080E390E0B3010E943B059A94D914C0F3AF
:100A1000DA94F101ED0DF11D808190E0B3010E94A7
:100A20003B05DD20A9F706C080E290E0B3010E94FB
:100A30003B05EA94EE20C1F743CEF301668177814E
:100A4000CB012B96E2E10C94E105FC01059061508D
:100A500070400110D8F7809590958E0F9F1F0895D4
:100A6000FC016150704001900110D8F7809590957D
:100A70008E0F9F1F08950F931F93CF93DF938C01C9
:100A8000EB018B8181FF1BC082FF0DC02E813F8156
:100A90008C819D812817390764F4E881F9810193DD
:100AA000F983E88306C0E885F985802F0995892BAD
:100AB00031F48E819F8101969F838E8302C00FEF58
:100AC0001FEFC801DF91CF911F910F910895FA0197
:100AD000AA27283051F1203181F1E8946F936E7F7D
:100AE0006E5F7F4F8F4F9F4FAF4FB1E03ED0B4E06E
:100AF0003CD0670F781F891F9A1FA11D680F791FAF
:100B00008A1F911DA11D6A0F711D811D911DA11DBF
:100B100020D009F468943F912AE0269F11243019CF
:100B2000305D3193DEF6CF010895462F4770405D6A
:100B30004193B3E00FD0C9F7F6CF462F4F70405D19
:100B40004A3318F0495D31FD4052419302D0A9F774
:100B5000EACFB4E0A6959795879577956795BA956E
:100B6000C9F700976105710508959B01AC010A2E34
:100B700006945795479537952795BA95C9F7620F0B
:100B8000731F841F951FA01D08952F923F924F92AF
:100B90005F926F927F928F929F92AF92BF92CF920D
:100BA000DF92EF92FF920F931F93CF93DF93CDB716
:100BB000DEB7CA1BDB0B0FB6F894DEBF0FBECDBF8E
:100BC00009942A88398848885F846E847D848C845F
:100BD0009B84AA84B984C884DF80EE80FD800C8168
:100BE0001B81AA81B981CE0FD11D0FB6F894DEBF4B
:0C0BF0000FBECDBFED010895F894FFCFBB
:100BFC002564002020202048656C6C6F200020208C
:100C0C00202020757365722120002057616974695A
:100C1C006E6720666F72202000202020206465768D
:100C2C006963652E2E2E002020204465766963654D
:100C3C00200020697320776F726B696E672000202B
:100C4C0043686F6F7365206C766C3A00596F752032
:0C0C5C0063686F7365206C766C3A0001D1
:00000001FF
