:100000000C942A000C9447000C9447000C94470071
:100010000C9447000C9447000C9447000C94470044
:100020000C9447000C9447000C9447000C94470034
:100030000C9447000C9447000C9447000C94470024
:100040000C9447000C9447000C9447000C94470014
:100050000C94470011241FBECFE5D8E0DEBFCDBF12
:1000600010E0A0E6B0E0E0E3F4E002C005900D92FD
:10007000A637B107D9F710E0A6E7B0E001C01D929E
:10008000A038B107E1F70E94D6010C9416020C9437
:1000900000009BB3282F207F9F70292B2BBBD89863
:1000A000D99A22E0922F9A95F1F7D998E0E9F1E0F8
:1000B0003197F1F79BB38295807F9F70982B9BBB04
:1000C000D99A2A95F1F7D99880EA9FE00197F1F73C
:1000D00008959BB3282F207F9F70292B2BBBD89A84
:1000E000D99A22E0922F9A95F1F7D998E0E9F1E0B8
:1000F0003197F1F79BB38295807F9F70982B9BBBC4
:10010000D99A2A95F1F7D99880EA9FE00197F1F7FB
:1001100008958FEF8ABB80E49CE90197F1F782E0B4
:100120000E94490088E20E9449008CE00E94490038
:1001300086E00E94490081E00E94490080EA9FE039
:100140000197F1F70895CF93DF93EC0102C00E946D
:10015000690089918823D9F7DF91CF910895CF93D2
:10016000DF93EA01882331F4603168F46F70862FE1
:10017000806807C0813039F4603128F46F70862FB1
:10018000806C0E944900CE010E94A300DF91CF91B4
:10019000089581E00E94490080EA9FE00197F1F70D
:1001A00080E80E94490008958AB188618AB980B5C3
:1001B000866880BD83E389B910BC089587B3806BDE
:1001C00087BBBE98C49A8DB181658DB908958FB9EA
:1001D000779BFECF8FB108958FEF8FB9779BFECFBE
:1001E0008FB108955D9BFECF8CB908958330B1F037
:1001F000843028F4813071F0823070F409C0853089
:10020000C1F0853080F08630C9F0873039F51FC0E5
:1002100086E00AC086E00EC086E011C086E08093CA
:100220007F0080EC0FC087E080937F0010927A00FF
:100230000BC087E080937F0080E404C087E0809358
:100240007F0080E880937A0010927E00089580936A
:100250007F0080EC80937A0010927E0008958F706A
:1002600008955D9BFECF9CB95D9BFECF8CB95D9BD5
:10027000FECF8AE08CB90895A8980895AF980895A4
:10028000A89A0895AF9A0895EF92FF920F931F9343
:10029000CF93DF9300E010E0C0E0D0E0FF249AE0CD
:1002A000E92E8F2D0E94F600A89880917F008FB9CB
:1002B000779BFECF8FB180917A008FB9779BFECF6D
:1002C0009FB190937D0080917E008FB9779BFECF88
:1002D0008FB180937B00A89A9F705D9BFECF9CB9E5
:1002E0005D9BFECF8CB95D9BFECFECB8090F111D55
:1002F000C80FD11DF39488E0F81699F6902F88273F
:100300008C0F9D1F9093770080937600DF91CF91A3
:100310001F910F91FF90EF900895EF92FF920F932E
:100320001F93CF93DF9300E010E0C0E0D0E0FF2404
:100330003AE0E32E8F2D0E94F600AF9880917F0067
:100340008FB9779BFECF8FB180917A008FB9779B61
:10035000FECF9FB190937D0080917E008FB9779BF7
:10036000FECF8FB180937B00AF9A9F705D9BFECFD5
:100370009CB95D9BFECF8CB95D9BFECFECB8090F9D
:10038000111DC80FD11DF39488E0F81699F6902F2F
:1003900088278C0F9D1F9093790080937800DF91C0
:1003A000CF911F910F91FF90EF900895A09AA79A77
:1003B0000E948900A89AAF9A0E94D4000E94DE0091
:1003C0005D9BFECF8FEF8CB95D9BFECF8AE08CB931
:1003D0005D9BFECF80E18CB95D9BFECF8AE08CB93E
:1003E0000E944401A89AAF9A0E948D0180917600E4
:1003F000909177000E94310180917800909179006E
:100400000E9431015D9BFECF8FEF8CB95D9BFECFCB
:100410008AE08CB980E690E00E94A30080EC0E9404
:10042000490087E690E00E94A300FFCFF894FFCF39
:1004300048656A6B612000647A69616C616A20704A
:06044000726F737A650083
:00000001FF
