:100000000C942A000C94D4000C94DE000C9447004D
:100010000C9447000C9447000C9447000C94470044
:100020000C9447000C9447000C9447000C94470034
:100030000C9447000C9447000C9447000C94470024
:100040000C9447000C9447000C9447000C94470014
:100050000C94470011241FBECFE5D8E0DEBFCDBF12
:1000600010E0A0E6B0E0EEEFF4E002C005900D92E3
:10007000A038B107D9F710E0A0E8B0E001C01D92A8
:10008000AA38B107E1F70E942A020C947D020C9471
:1000900000009BB3282F207F9F70292B2BBBD89863
:1000A000D99A22E0922F9A95F1F7D998E0E9F1E0F8
:1000B0003197F1F79BB38295807F9F70982B9BBB04
:1000C000D99A2A95F1F7D99880EA9FE00197F1F73C
:1000D00008959BB3282F207F9F70292B2BBBD89A84
:1000E000D99A22E0922F9A95F1F7D998E0E9F1E0B8
:1000F0003197F1F79BB38295807F9F70982B9BBBC4
:10010000D99A2A95F1F7D99880EA9FE00197F1F7FB
:1001100008958FEF8ABB80E49CE90197F1F782E0B4
:100120000E94490088E20E9449008CE00E94490038
:1001300086E00E94490081E00E94490080EA9FE039
:100140000197F1F70895CF93DF93EC0102C00E946D
:10015000690089918823D9F7DF91CF910895CF93D2
:10016000DF93EA01882331F4603168F46F70862FE1
:10017000806807C0813039F4603128F46F70862FB1
:10018000806C0E944900CE010E94A300DF91CF91B4
:10019000089581E00E94490080EA9FE00197F1F70D
:1001A00080E80E94490008951F920F920FB60F92A7
:1001B00011240F900FBE0F901F9018951F920F9251
:1001C0000FB60F9211240F900FBE0F901F9018952D
:1001D0008AB188618AB980B5866880BD83E389B9B0
:1001E00010BC089587B3806B87BBBE98C49A8DB14D
:1001F00081658DB908958FB9779BFECF8FB1089532
:100200008FEF8FB9779BFECF8FB108955D9BFECFA7
:100210008CB908955F9BFECF8CB108958330B1F007
:10022000843028F4813071F0823070F409C0853058
:10023000C1F0853080F08630C9F0873039F51FC0B5
:1002400086E00AC086E00EC086E011C086E080939A
:10025000890080EC0FC087E08093890010928400B1
:100260000BC087E08093890080E404C087E080931E
:10027000890080E88093840010928800089580931C
:10028000890080EC809384001092880008958F701C
:1002900008955D9BFECF9CB95D9BFECF8CB95D9BA5
:1002A000FECF8AE08CB90895A8980895AF98089574
:1002B000A89A0895AF9A0895EF92FF920F931F9313
:1002C000CF93DF9300E010E0C0E0D0E0FF249AE09D
:1002D000E92E8F2D0E940E01A898809189008FB978
:1002E000779BFECF8FB1809184008FB9779BFECF33
:1002F0009FB190938700809188008FB9779BFECF44
:100300008FB180938500A89A9F705D9BFECF9CB9AA
:100310005D9BFECF8CB95D9BFECFECB8090F111D24
:10032000C80FD11DF39488E0F81699F6902F88270E
:100330008C0F9D1F9093810080938000DF91CF915F
:100340001F910F91FF90EF900895EF92FF920F93FE
:100350001F93CF93DF9300E010E0C0E0D0E0FF24D4
:100360003AE0E32E8F2D0E940E01AF988091890014
:100370008FB9779BFECF8FB1809184008FB9779B27
:10038000FECF9FB190938700809188008FB9779BB3
:10039000FECF8FB180938500AF9A9F705D9BFECF9B
:1003A0009CB95D9BFECF8CB95D9BFECFECB8090F6D
:1003B000111DC80FD11DF39488E0F81699F6902FFF
:1003C00088278C0F9D1F9093830080938200DF917C
:1003D000CF911F910F91FF90EF9008958530910577
:1003E00051F1863091057CF482309105F1F0833033
:1003F00091051CF4019759F52BC083309105B9F094
:10040000049729F516C088309105D9F089309105F7
:1004100034F48630910589F00797C9F410C089300B
:10042000910589F00A9799F410C082E3089583E357
:10043000089584E3089585E3089586E3089587E3A6
:10044000089588E3089589E3089580E30895089561
:1004500081E30895A09AA79A0E948900A89AAF9A6A
:1004600085B78A6085BF84B7806484BF8BB7806E90
:100470008BBF0E94E8000E94F2005D9BFECF8FEFD1
:100480008CB95D9BFECF8AE08CB95D9BFECF80E18D
:100490008CB95D9BFECF8AE08CB90E945C01A89A62
:1004A000AF9A0E94A50180918000909181000E94E6
:1004B000490180918200909183000E9449015D9BD7
:1004C000FECF8FEF8CB95D9BFECF8AE08CB95F9B2E
:1004D000FECF8CB1882361F080E690E00E94A300FB
:1004E00080EC0E94490080E790E00E94A30004C0D5
:0E04F0008CE790E00E94A300FFCFF894FFCFAE
:1004FE002020436F6E6E656374656420746F2000F8
:10050E0020202020206465766963650068656A0096
:00000001FF
